{
  "_format": "hh-sol-artifact-1",
  "contractName": "ImageProvenance",
  "sourceName": "contracts/ImageProvenance.sol",
  "abi": [
    {
      "anonymous": false,
      "inputs": [
        {
          "indexed": true,
          "internalType": "address",
          "name": "creator",
          "type": "address"
        },
        {
          "indexed": false,
          "internalType": "string",
          "name": "cid",
          "type": "string"
        },
        {
          "indexed": false,
          "internalType": "uint256",
          "name": "timestamp",
          "type": "uint256"
        }
      ],
      "name": "ManifestStored",
      "type": "event"
    },
    {
      "inputs": [],
      "name": "getAll",
      "outputs": [
        {
          "components": [
            {
              "internalType": "string",
              "name": "cid",
              "type": "string"
            },
            {
              "internalType": "address",
              "name": "creator",
              "type": "address"
            },
            {
              "internalType": "uint256",
              "name": "timestamp",
              "type": "uint256"
            }
          ],
          "internalType": "struct ImageProvenance.Manifest[]",
          "name": "",
          "type": "tuple[]"
        }
      ],
      "stateMutability": "view",
      "type": "function"
    },
    {
      "inputs": [],
      "name": "getCount",
      "outputs": [
        {
          "internalType": "uint256",
          "name": "",
          "type": "uint256"
        }
      ],
      "stateMutability": "view",
      "type": "function"
    },
    {
      "inputs": [
        {
          "internalType": "uint256",
          "name": "",
          "type": "uint256"
        }
      ],
      "name": "manifests",
      "outputs": [
        {
          "internalType": "string",
          "name": "cid",
          "type": "string"
        },
        {
          "internalType": "address",
          "name": "creator",
          "type": "address"
        },
        {
          "internalType": "uint256",
          "name": "timestamp",
          "type": "uint256"
        }
      ],
      "stateMutability": "view",
      "type": "function"
    },
    {
      "inputs": [
        {
          "internalType": "string",
          "name": "_cid",
          "type": "string"
        }
      ],
      "name": "storeManifest",
      "outputs": [],
      "stateMutability": "nonpayable",
      "type": "function"
    }
  ],
  "bytecode": "0x608060405234801561001057600080fd5b506106d6806100206000396000f3fe608060405234801561001057600080fd5b506004361061004c5760003560e01c8063429aa9991461005157806353ed514314610066578063a87d942c14610084578063d2148b3814610095575b600080fd5b61006461005f36600461037f565b6100b7565b005b61006e61019f565b60405161007b9190610437565b60405180910390f35b60005460405190815260200161007b565b6100a86100a33660046104c1565b6102b3565b60405161007b939291906104da565b6040805160806020601f8501819004028201810190925260608101838152600092829190869086908190850183828082843760009201829052509385525050336020808501919091524260409094019390935250835460018101855593815220815191926003020190819061012c90826105a7565b5060208201516001820180546001600160a01b0319166001600160a01b039092169190911790556040918201516002909101555133907fa8c4c1eaf657c7492785f70464d7732dcecc71f4544379fc995fea9c4853b3469061019390859085904290610667565b60405180910390a25050565b60606000805480602002602001604051908101604052809291908181526020016000905b828210156102aa57838290600052602060002090600302016040518060600160405290816000820180546101f69061051e565b80601f01602080910402602001604051908101604052809291908181526020018280546102229061051e565b801561026f5780601f106102445761010080835404028352916020019161026f565b820191906000526020600020905b81548152906001019060200180831161025257829003601f168201915b50505091835250506001828101546001600160a01b0316602080840191909152600290930154604090920191909152918352920191016101c3565b50505050905090565b600081815481106102c357600080fd5b90600052602060002090600302016000915090508060000180546102e69061051e565b80601f01602080910402602001604051908101604052809291908181526020018280546103129061051e565b801561035f5780601f106103345761010080835404028352916020019161035f565b820191906000526020600020905b81548152906001019060200180831161034257829003601f168201915b50505050600183015460029093015491926001600160a01b031691905083565b6000806020838503121561039257600080fd5b823567ffffffffffffffff808211156103aa57600080fd5b818501915085601f8301126103be57600080fd5b8135818111156103cd57600080fd5b8660208285010111156103df57600080fd5b60209290920196919550909350505050565b6000815180845260005b81811015610417576020818501810151868301820152016103fb565b506000602082860101526020601f19601f83011685010191505092915050565b60006020808301818452808551808352604092508286019150828160051b87010184880160005b838110156104b357603f19898403018552815160608151818652610484828701826103f1565b838b01516001600160a01b0316878c01529289015195890195909552509487019492509086019060010161045e565b509098975050505050505050565b6000602082840312156104d357600080fd5b5035919050565b6060815260006104ed60608301866103f1565b6001600160a01b039490941660208301525060400152919050565b634e487b7160e01b600052604160045260246000fd5b600181811c9082168061053257607f821691505b60208210810361055257634e487b7160e01b600052602260045260246000fd5b50919050565b601f8211156105a257600081815260208120601f850160051c8101602086101561057f5750805b601f850160051c820191505b8181101561059e5782815560010161058b565b5050505b505050565b815167ffffffffffffffff8111156105c1576105c1610508565b6105d5816105cf845461051e565b84610558565b602080601f83116001811461060a57600084156105f25750858301515b600019600386901b1c1916600185901b17855561059e565b600085815260208120601f198616915b828110156106395788860151825594840194600190910190840161061a565b50858210156106575787850151600019600388901b60f8161c191681555b5050505050600190811b01905550565b604081528260408201528284606083013760006060848301015260006060601f19601f860116830101905082602083015294935050505056fea2646970667358221220f64377bf9eb272251f6a3bf665c1f7d565a967937bf6b7445431dc138f6afde664736f6c63430008140033",
  "linkReferences": {},
  "deployedLinkReferences": {}
}